{
  "_format": "hh-sol-artifact-1",
  "contractName": "NFTMarket",
  "sourceName": "contracts/Marketplace.sol",
  "abi": [
    {
      "inputs": [],
      "stateMutability": "nonpayable",
      "type": "constructor"
    },
    {
      "anonymous": false,
      "inputs": [
        {
          "indexed": false,
          "internalType": "uint256",
          "name": "tokenId",
          "type": "uint256"
        },
        {
          "indexed": false,
          "internalType": "address",
          "name": "bidder",
          "type": "address"
        },
        {
          "indexed": false,
          "internalType": "uint256",
          "name": "amount",
          "type": "uint256"
        }
      ],
      "name": "MarketItemBid",
      "type": "event"
    },
    {
      "anonymous": false,
      "inputs": [
        {
          "indexed": true,
          "internalType": "uint256",
          "name": "itemId",
          "type": "uint256"
        },
        {
          "indexed": true,
          "internalType": "address",
          "name": "nftContract",
          "type": "address"
        },
        {
          "indexed": true,
          "internalType": "uint256",
          "name": "tokenId",
          "type": "uint256"
        },
        {
          "indexed": false,
          "internalType": "address",
          "name": "seller",
          "type": "address"
        },
        {
          "indexed": false,
          "internalType": "address",
          "name": "owner",
          "type": "address"
        },
        {
          "indexed": false,
          "internalType": "address",
          "name": "currentBidder",
          "type": "address"
        },
        {
          "indexed": false,
          "internalType": "uint256",
          "name": "price",
          "type": "uint256"
        },
        {
          "indexed": false,
          "internalType": "bool",
          "name": "sold",
          "type": "bool"
        },
        {
          "indexed": false,
          "internalType": "bool",
          "name": "isAuction",
          "type": "bool"
        },
        {
          "indexed": false,
          "internalType": "uint256",
          "name": "currentBid",
          "type": "uint256"
        }
      ],
      "name": "MarketItemCreated",
      "type": "event"
    },
    {
      "anonymous": false,
      "inputs": [
        {
          "indexed": true,
          "internalType": "uint256",
          "name": "tokenId",
          "type": "uint256"
        },
        {
          "indexed": true,
          "internalType": "address",
          "name": "nft",
          "type": "address"
        },
        {
          "indexed": false,
          "internalType": "address",
          "name": "seller",
          "type": "address"
        },
        {
          "indexed": false,
          "internalType": "address",
          "name": "owner",
          "type": "address"
        }
      ],
      "name": "MarketItemSold",
      "type": "event"
    },
    {
      "inputs": [
        {
          "internalType": "uint256",
          "name": "itemId",
          "type": "uint256"
        },
        {
          "internalType": "uint256",
          "name": "price",
          "type": "uint256"
        }
      ],
      "name": "createAuctionBid",
      "outputs": [],
      "stateMutability": "payable",
      "type": "function"
    },
    {
      "inputs": [
        {
          "internalType": "uint256",
          "name": "itemId",
          "type": "uint256"
        }
      ],
      "name": "createAuctionSale",
      "outputs": [],
      "stateMutability": "payable",
      "type": "function"
    },
    {
      "inputs": [
        {
          "internalType": "address",
          "name": "nftContract",
          "type": "address"
        },
        {
          "internalType": "uint256",
          "name": "tokenId",
          "type": "uint256"
        },
        {
          "internalType": "uint256",
          "name": "price",
          "type": "uint256"
        },
        {
          "internalType": "uint256",
          "name": "auctionDays",
          "type": "uint256"
        }
      ],
      "name": "createMarketAuction",
      "outputs": [],
      "stateMutability": "payable",
      "type": "function"
    },
    {
      "inputs": [
        {
          "internalType": "address",
          "name": "nftContract",
          "type": "address"
        },
        {
          "internalType": "uint256",
          "name": "tokenId",
          "type": "uint256"
        },
        {
          "internalType": "uint256",
          "name": "price",
          "type": "uint256"
        }
      ],
      "name": "createMarketItem",
      "outputs": [],
      "stateMutability": "payable",
      "type": "function"
    },
    {
      "inputs": [
        {
          "internalType": "uint256",
          "name": "itemId",
          "type": "uint256"
        }
      ],
      "name": "createMarketSale",
      "outputs": [],
      "stateMutability": "payable",
      "type": "function"
    },
    {
      "inputs": [],
      "name": "fetchItemsListed",
      "outputs": [
        {
          "components": [
            {
              "internalType": "uint256",
              "name": "itemId",
              "type": "uint256"
            },
            {
              "internalType": "address",
              "name": "nftContract",
              "type": "address"
            },
            {
              "internalType": "uint256",
              "name": "tokenId",
              "type": "uint256"
            },
            {
              "internalType": "address payable",
              "name": "seller",
              "type": "address"
            },
            {
              "internalType": "address payable",
              "name": "owner",
              "type": "address"
            },
            {
              "internalType": "address payable",
              "name": "currentBidder",
              "type": "address"
            },
            {
              "internalType": "uint256",
              "name": "price",
              "type": "uint256"
            },
            {
              "internalType": "bool",
              "name": "sold",
              "type": "bool"
            },
            {
              "internalType": "bool",
              "name": "isAuction",
              "type": "bool"
            },
            {
              "internalType": "uint256",
              "name": "currentBid",
              "type": "uint256"
            }
          ],
          "internalType": "struct NFTMarket.MarketItem[]",
          "name": "",
          "type": "tuple[]"
        }
      ],
      "stateMutability": "view",
      "type": "function"
    },
    {
      "inputs": [],
      "name": "fetchMarketItems",
      "outputs": [
        {
          "components": [
            {
              "internalType": "uint256",
              "name": "itemId",
              "type": "uint256"
            },
            {
              "internalType": "address",
              "name": "nftContract",
              "type": "address"
            },
            {
              "internalType": "uint256",
              "name": "tokenId",
              "type": "uint256"
            },
            {
              "internalType": "address payable",
              "name": "seller",
              "type": "address"
            },
            {
              "internalType": "address payable",
              "name": "owner",
              "type": "address"
            },
            {
              "internalType": "address payable",
              "name": "currentBidder",
              "type": "address"
            },
            {
              "internalType": "uint256",
              "name": "price",
              "type": "uint256"
            },
            {
              "internalType": "bool",
              "name": "sold",
              "type": "bool"
            },
            {
              "internalType": "bool",
              "name": "isAuction",
              "type": "bool"
            },
            {
              "internalType": "uint256",
              "name": "currentBid",
              "type": "uint256"
            }
          ],
          "internalType": "struct NFTMarket.MarketItem[]",
          "name": "",
          "type": "tuple[]"
        }
      ],
      "stateMutability": "view",
      "type": "function"
    },
    {
      "inputs": [],
      "name": "fetchMyNFTs",
      "outputs": [
        {
          "components": [
            {
              "internalType": "uint256",
              "name": "itemId",
              "type": "uint256"
            },
            {
              "internalType": "address",
              "name": "nftContract",
              "type": "address"
            },
            {
              "internalType": "uint256",
              "name": "tokenId",
              "type": "uint256"
            },
            {
              "internalType": "address payable",
              "name": "seller",
              "type": "address"
            },
            {
              "internalType": "address payable",
              "name": "owner",
              "type": "address"
            },
            {
              "internalType": "address payable",
              "name": "currentBidder",
              "type": "address"
            },
            {
              "internalType": "uint256",
              "name": "price",
              "type": "uint256"
            },
            {
              "internalType": "bool",
              "name": "sold",
              "type": "bool"
            },
            {
              "internalType": "bool",
              "name": "isAuction",
              "type": "bool"
            },
            {
              "internalType": "uint256",
              "name": "currentBid",
              "type": "uint256"
            }
          ],
          "internalType": "struct NFTMarket.MarketItem[]",
          "name": "",
          "type": "tuple[]"
        }
      ],
      "stateMutability": "view",
      "type": "function"
    },
    {
      "inputs": [],
      "name": "fetchUserBids",
      "outputs": [
        {
          "components": [
            {
              "internalType": "uint256",
              "name": "itemId",
              "type": "uint256"
            },
            {
              "internalType": "address",
              "name": "nftContract",
              "type": "address"
            },
            {
              "internalType": "uint256",
              "name": "tokenId",
              "type": "uint256"
            },
            {
              "internalType": "address payable",
              "name": "seller",
              "type": "address"
            },
            {
              "internalType": "address payable",
              "name": "owner",
              "type": "address"
            },
            {
              "internalType": "address payable",
              "name": "currentBidder",
              "type": "address"
            },
            {
              "internalType": "uint256",
              "name": "price",
              "type": "uint256"
            },
            {
              "internalType": "bool",
              "name": "sold",
              "type": "bool"
            },
            {
              "internalType": "bool",
              "name": "isAuction",
              "type": "bool"
            },
            {
              "internalType": "uint256",
              "name": "currentBid",
              "type": "uint256"
            }
          ],
          "internalType": "struct NFTMarket.MarketItem[]",
          "name": "",
          "type": "tuple[]"
        }
      ],
      "stateMutability": "view",
      "type": "function"
    },
    {
      "inputs": [
        {
          "internalType": "uint256",
          "name": "itemId",
          "type": "uint256"
        },
        {
          "internalType": "uint256",
          "name": "price",
          "type": "uint256"
        }
      ],
      "name": "reauctionToken",
      "outputs": [],
      "stateMutability": "payable",
      "type": "function"
    },
    {
      "inputs": [
        {
          "internalType": "uint256",
          "name": "itemId",
          "type": "uint256"
        },
        {
          "internalType": "uint256",
          "name": "price",
          "type": "uint256"
        }
      ],
      "name": "resellToken",
      "outputs": [],
      "stateMutability": "payable",
      "type": "function"
    },
    {
      "inputs": [
        {
          "internalType": "uint256",
          "name": "itemId",
          "type": "uint256"
        },
        {
          "internalType": "address",
          "name": "recepient",
          "type": "address"
        }
      ],
      "name": "transferit",
      "outputs": [],
      "stateMutability": "payable",
      "type": "function"
    },
    {
      "inputs": [
        {
          "internalType": "uint256",
          "name": "itemId",
          "type": "uint256"
        }
      ],
      "name": "withdrawbid",
      "outputs": [],
      "stateMutability": "payable",
      "type": "function"
    }
  ],
  "bytecode": "0x608060405234801561001057600080fd5b506001600055600380546001600160a01b03191633179055612089806100376000396000f3fe6080604052600436106100c25760003560e01c80635f3d48061161007f578063be87e08111610059578063be87e08114610192578063be9af536146101a5578063e219fc75146101b8578063e9e35d13146101cb576100c2565b80635f3d480614610157578063947916591461016c5780639c1c263e1461017f576100c2565b80630f08efe0146100c7578063202e3740146100f2578063249b3730146101075780633e52f34c1461011c57806345f8fa801461012f57806358eb2df514610144575b600080fd5b3480156100d357600080fd5b506100dc6101de565b6040516100e99190611e0c565b60405180910390f35b3480156100fe57600080fd5b506100dc6103b5565b61011a610115366004611d41565b6105c2565b005b61011a61012a366004611d41565b6106fb565b34801561013b57600080fd5b506100dc6109a3565b61011a610152366004611cd7565b610bb0565b34801561016357600080fd5b506100dc610ea6565b61011a61017a366004611d59565b6110b3565b61011a61018d366004611d84565b61118c565b61011a6101a0366004611d09565b6112af565b61011a6101b3366004611d41565b61166d565b61011a6101c6366004611d84565b611889565b61011a6101d9366004611d84565b6119cf565b606060006101ec6001611c0d565b905060006101fa6002611c0d565b6102046001611c0d565b61020e919061200b565b90506000808267ffffffffffffffff81111561023a57634e487b7160e01b600052604160045260246000fd5b60405190808252806020026020018201604052801561027357816020015b610260611c6c565b8152602001906001900390816102585790505b50905060005b848110156103ac573060046000610291846001611fb4565b81526020810191909152604001600020600401546001600160a01b0316141561039a5760006102c1826001611fb4565b6000818152600460208181526040928390208351610140810185528154815260018201546001600160a01b0390811693820193909352600282015494810194909452600381015482166060850152918201548116608084015260058201541660a0830152600681015460c0830152600781015460ff808216151560e08501526101009182900416151590830152600881015461012083015285519293509185908790811061037f57634e487b7160e01b600052603260045260246000fd5b6020908102919091010152610395600186611fb4565b945050505b806103a481612022565b915050610279565b50935050505090565b606060006103c36001611c0d565b905060008060005b838110156104265733600460006103e3846001611fb4565b81526020810191909152604001600020600401546001600160a01b0316141561041457610411600184611fb4565b92505b8061041e81612022565b9150506103cb565b5060008267ffffffffffffffff81111561045057634e487b7160e01b600052604160045260246000fd5b60405190808252806020026020018201604052801561048957816020015b610476611c6c565b81526020019060019003908161046e5790505b50905060005b848110156103ac5733600460006104a7846001611fb4565b81526020810191909152604001600020600401546001600160a01b031614156105b05760006104d7826001611fb4565b6000818152600460208181526040928390208351610140810185528154815260018201546001600160a01b0390811693820193909352600282015494810194909452600381015482166060850152918201548116608084015260058201541660a0830152600681015460c0830152600781015460ff808216151560e08501526101009182900416151590830152600881015461012083015285519293509185908790811061059557634e487b7160e01b600052603260045260246000fd5b60209081029190910101526105ab600186611fb4565b945050505b806105ba81612022565b91505061048f565b600260005414156105ee5760405162461bcd60e51b81526004016105e590611f7d565b60405180910390fd5b600260009081558181526004602090815260408083206005909252909120600782015460ff16156106315760405162461bcd60e51b81526004016105e590611f46565b6007820154610100900460ff1661065a5760405162461bcd60e51b81526004016105e590611ec5565b60018101546001600160a01b0316331461067357600080fd5b600181015481546040516001600160a01b039092169181156108fc0291906000818181858888f193505050501580156106b0573d6000803e3d6000fd5b5050506000908152600460209081526040808320600580820180546001600160a01b031990811690915560089092018590559092528220828155600190810180549092169091559055565b6002600054141561071e5760405162461bcd60e51b81526004016105e590611f7d565b6002600090815581815260046020526040902060038101546001600160a01b031633146107a05760405162461bcd60e51b815260206004820152602a60248201527f4f6e6c79206974656d2073656c65722063616e20706572666f726d20746869736044820152691037b832b930ba34b7b760b11b60648201526084016105e5565b600781015460ff16156107c55760405162461bcd60e51b81526004016105e590611f46565b6007810154610100900460ff166107ee5760405162461bcd60e51b81526004016105e590611ec5565b6000828152600460208181526040808420600180820154600580840180546003808c015460028801546008808f01549c8a0180546001600160a01b03199081166001600160a01b0388811691821790935560078d01805460ff19168d179055958c018054821690559586169096559098018c905593909852958920898155909301805490951690945581169593949216929091906019906103e890816108948486611fec565b61089e9190611fcc565b905060006108ac828661200b565b6040516323b872dd60e01b81529091506001600160a01b038a16906323b872dd906108df9030908c908b90600401611de8565b600060405180830381600087803b1580156108f957600080fd5b505af115801561090d573d6000803e3d6000fd5b50506003546040516001600160a01b03909116925084156108fc02915084906000818181858888f1935050505015801561094b573d6000803e3d6000fd5b506040516001600160a01b0388169082156108fc029083906000818181858888f19350505050158015610982573d6000803e3d6000fd5b50610991600280546001019055565b50506001600055505050505050505050565b606060006109b16001611c0d565b905060008060005b83811015610a145733600460006109d1846001611fb4565b81526020810191909152604001600020600301546001600160a01b03161415610a02576109ff600184611fb4565b92505b80610a0c81612022565b9150506109b9565b5060008267ffffffffffffffff811115610a3e57634e487b7160e01b600052604160045260246000fd5b604051908082528060200260200182016040528015610a7757816020015b610a64611c6c565b815260200190600190039081610a5c5790505b50905060005b848110156103ac573360046000610a95846001611fb4565b81526020810191909152604001600020600301546001600160a01b03161415610b9e576000610ac5826001611fb4565b6000818152600460208181526040928390208351610140810185528154815260018201546001600160a01b0390811693820193909352600282015494810194909452600381015482166060850152918201548116608084015260058201541660a0830152600681015460c0830152600781015460ff808216151560e085015261010091829004161515908301526008810154610120830152855192935091859087908110610b8357634e487b7160e01b600052603260045260246000fd5b6020908102919091010152610b99600186611fb4565b945050505b80610ba881612022565b915050610a7d565b60026000541415610bd35760405162461bcd60e51b81526004016105e590611f7d565b600260005580610c255760405162461bcd60e51b815260206004820152601c60248201527f5072696365206d757374206265206174206c656173742031207765690000000060448201526064016105e5565b610c33600180546001019055565b6000610c3f6001611c0d565b9050604051806101400160405280828152602001856001600160a01b03168152602001848152602001336001600160a01b03168152602001306001600160a01b0316815260200160006001600160a01b031681526020018381526020016000151581526020016000151581526020016000815250600460008381526020019081526020016000206000820151816000015560208201518160010160006101000a8154816001600160a01b0302191690836001600160a01b031602179055506040820151816002015560608201518160030160006101000a8154816001600160a01b0302191690836001600160a01b0316021790555060808201518160040160006101000a8154816001600160a01b0302191690836001600160a01b0316021790555060a08201518160050160006101000a8154816001600160a01b0302191690836001600160a01b0316021790555060c0820151816006015560e08201518160070160006101000a81548160ff0219169083151502179055506101008201518160070160016101000a81548160ff0219169083151502179055506101208201518160080155905050836001600160a01b03166323b872dd3330866040518463ffffffff1660e01b8152600401610e1793929190611de8565b600060405180830381600087803b158015610e3157600080fd5b505af1158015610e45573d6000803e3d6000fd5b5050505082846001600160a01b0316827f938d4085350a0956dc2cecd69933188570b4c29d0eae98dc3bca49ca229e22b233306000886000806000604051610e939796959493929190611da5565b60405180910390a4505060016000555050565b60606000610eb46001611c0d565b905060008060005b83811015610f17573360046000610ed4846001611fb4565b81526020810191909152604001600020600501546001600160a01b03161415610f0557610f02600184611fb4565b92505b80610f0f81612022565b915050610ebc565b5060008267ffffffffffffffff811115610f4157634e487b7160e01b600052604160045260246000fd5b604051908082528060200260200182016040528015610f7a57816020015b610f67611c6c565b815260200190600190039081610f5f5790505b50905060005b848110156103ac573360046000610f98846001611fb4565b81526020810191909152604001600020600501546001600160a01b031614156110a1576000610fc8826001611fb4565b6000818152600460208181526040928390208351610140810185528154815260018201546001600160a01b0390811693820193909352600282015494810194909452600381015482166060850152918201548116608084015260058201541660a0830152600681015460c0830152600781015460ff808216151560e08501526101009182900416151590830152600881015461012083015285519293509185908790811061108657634e487b7160e01b600052603260045260246000fd5b602090810291909101015261109c600186611fb4565b945050505b806110ab81612022565b915050610f80565b600082815260046020819052604090912001546001600160a01b031633146110ed5760405162461bcd60e51b81526004016105e590611efc565b6000828152600460208190526040918290206002810154600182015491830180546001600160a01b0319166001600160a01b038781169190911790915593516323b872dd60e01b815290939091169182916323b872dd916111549133918891889101611de8565b600060405180830381600087803b15801561116e57600080fd5b505af1158015611182573d6000803e3d6000fd5b5050505050505050565b600082815260046020819052604090912001546001600160a01b031633146111c65760405162461bcd60e51b81526004016105e590611efc565b6000828152600460208190526040822060018101546002808301546007840180546006860189905561ffff19166101001790556003840180546001600160a01b031990811633179091559484018054861630179055600884019590955560058301805490941690935590926001600160a01b039091169161124690611c15565b6040516323b872dd60e01b81526001600160a01b038316906323b872dd9061127690339030908690600401611de8565b600060405180830381600087803b15801561129057600080fd5b505af11580156112a4573d6000803e3d6000fd5b505050505050505050565b600260005414156112d25760405162461bcd60e51b81526004016105e590611f7d565b6002600055816113245760405162461bcd60e51b815260206004820152601c60248201527f5072696365206d757374206265206174206c656173742031207765690000000060448201526064016105e5565b600081116113745760405162461bcd60e51b815260206004820152601c60248201527f41756374696f6e2074696d652063616e2774206265203020646179730000000060448201526064016105e5565b611382600180546001019055565b600061138e6001611c0d565b9050604051806101400160405280828152602001866001600160a01b03168152602001858152602001336001600160a01b03168152602001306001600160a01b0316815260200160006001600160a01b031681526020018481526020016000151581526020016001151581526020016000815250600460008381526020019081526020016000206000820151816000015560208201518160010160006101000a8154816001600160a01b0302191690836001600160a01b031602179055506040820151816002015560608201518160030160006101000a8154816001600160a01b0302191690836001600160a01b0316021790555060808201518160040160006101000a8154816001600160a01b0302191690836001600160a01b0316021790555060a08201518160050160006101000a8154816001600160a01b0302191690836001600160a01b0316021790555060c0820151816006015560e08201518160070160006101000a81548160ff0219169083151502179055506101008201518160070160016101000a81548160ff021916908315150217905550610120820151816008015590505060405180606001604052806000815260200160006001600160a01b0316815260200183620151806115679190611fec565b6115719042611fb4565b905260008281526005602090815260409182902083518155908301516001820180546001600160a01b0319166001600160a01b0392831617905592820151600290910155516323b872dd60e01b8152908616906323b872dd906115dc90339030908990600401611de8565b600060405180830381600087803b1580156115f657600080fd5b505af115801561160a573d6000803e3d6000fd5b5050505083856001600160a01b0316827f938d4085350a0956dc2cecd69933188570b4c29d0eae98dc3bca49ca229e22b233306000896000600160006040516116599796959493929190611da5565b60405180910390a450506001600055505050565b60008181526004602052604090206006810154600382015460019092015490916001600160a01b039081169116348314611711576040805162461bcd60e51b81526020600482015260248101919091527f506c65617365207375626d6974207468652061736b696e67207072696365206960448201527f6e206f7264657220746f20636f6d706c6574652074686520707572636861736560648201526084016105e5565b600084815260046020819052604090912060028082015492820180546001600160a01b0319908116331790915560078301805460ff19166001179055600390920180549092169091556117679080546001019055565b6040516323b872dd60e01b81526001600160a01b038316906323b872dd9061179790309033908690600401611de8565b600060405180830381600087803b1580156117b157600080fd5b505af11580156117c5573d6000803e3d6000fd5b50601992506103e8915060009050816117de8489611fec565b6117e89190611fcc565b90506000826117f7858a611fec565b6118019190611fcc565b61180b908961200b565b6003546040519192506001600160a01b03169083156108fc029084906000818181858888f19350505050158015611846573d6000803e3d6000fd5b506040516001600160a01b0388169082156108fc029083906000818181858888f1935050505015801561187d573d6000803e3d6000fd5b50505050505050505050565b600260005414156118ac5760405162461bcd60e51b81526004016105e590611f7d565b6002600081815583815260046020819052604090912091820154908201546001600160a01b031633146118f15760405162461bcd60e51b81526004016105e590611efc565b60008481526004602081905260408220600181015460078201805461ffff19169055600682018790556003820180546001600160a01b0319908116331790915592820180548416301790556008820193909355600501805490911690556001600160a01b03166119616002611c15565b6040516323b872dd60e01b81526001600160a01b038216906323b872dd9061199190339030908790600401611de8565b600060405180830381600087803b1580156119ab57600080fd5b505af11580156119bf573d6000803e3d6000fd5b5050600160005550505050505050565b600260005414156119f25760405162461bcd60e51b81526004016105e590611f7d565b600260009081558281526004602090815260408083206005909252909120600782015460ff1615611a355760405162461bcd60e51b81526004016105e590611f46565b6007820154610100900460ff16611a5e5760405162461bcd60e51b81526004016105e590611ec5565b81600601548311611abf5760405162461bcd60e51b815260206004820152602560248201527f596f75206e65656420746f20706179206d6f7265207468616e20666c6f6f7220604482015264707269636560d81b60648201526084016105e5565b42816002015411611b125760405162461bcd60e51b815260206004820152601960248201527f41756374696f6e2068617320616c726561647920656e6465640000000000000060448201526064016105e5565b80548311611b785760405162461bcd60e51b815260206004820152602d60248201527f596f75206e65656420746f20706179206d6f7265207468616e2063757272656e60448201526c1d081a1a59da195cdd08189a59609a1b60648201526084016105e5565b600181015481546040516001600160a01b039092169181156108fc0291906000818181858888f19350505050158015611bb5573d6000803e3d6000fd5b5060019081018054336001600160a01b03199182168117909255600095865260056020818152604080892088815586018054851686179055600490915287209081018054909216909217905560080192909255509055565b80545b919050565b805480611c645760405162461bcd60e51b815260206004820152601b60248201527f436f756e7465723a2064656372656d656e74206f766572666c6f77000000000060448201526064016105e5565b600019019055565b6040805161014081018252600080825260208201819052918101829052606081018290526080810182905260a0810182905260c0810182905260e08101829052610100810182905261012081019190915290565b80356001600160a01b0381168114611c1057600080fd5b600080600060608486031215611ceb578283fd5b611cf484611cc0565b95602085013595506040909401359392505050565b60008060008060808587031215611d1e578081fd5b611d2785611cc0565b966020860135965060408601359560600135945092505050565b600060208284031215611d52578081fd5b5035919050565b60008060408385031215611d6b578182fd5b82359150611d7b60208401611cc0565b90509250929050565b60008060408385031215611d96578182fd5b50508035926020909101359150565b6001600160a01b039788168152958716602087015293909516604085015260608401919091521515608083015291151560a082015260c081019190915260e00190565b6001600160a01b039384168152919092166020820152604081019190915260600190565b602080825282518282018190526000919060409081850190868401855b82811015611eb857815180518552868101516001600160a01b0390811688870152868201518787015260608083015182169087015260808083015182169087015260a0808301519091169086015260c0808201519086015260e0808201511515908601526101008082015115159086015261012090810151908501526101409093019290850190600101611e29565b5091979650505050505050565b60208082526017908201527f4974656d206973206e6f7420666f722061756374696f6e000000000000000000604082015260600190565b6020808252602a908201527f4f6e6c79206974656d206f776e65722063616e20706572666f726d20746869736040820152691037b832b930ba34b7b760b11b606082015260800190565b6020808252601a908201527f4974656d2068617320616c7265616479206265656e20736f6c64000000000000604082015260600190565b6020808252601f908201527f5265656e7472616e637947756172643a207265656e7472616e742063616c6c00604082015260600190565b60008219821115611fc757611fc761203d565b500190565b600082611fe757634e487b7160e01b81526012600452602481fd5b500490565b60008160001904831182151516156120065761200661203d565b500290565b60008282101561201d5761201d61203d565b500390565b60006000198214156120365761203661203d565b5060010190565b634e487b7160e01b600052601160045260246000fdfea264697066735822122064e326315bfe60ad7598735b90f72b8569dde9151fa70fa89750504cb645034a64736f6c63430008030033",
  "linkReferences": {},
  "deployedLinkReferences": {}
}