{
  "_format": "hh-sol-artifact-1",
  "contractName": "NFT",
  "sourceName": "contracts/NFT.sol",
  "abi": [
    {
      "inputs": [
        {
          "internalType": "address",
          "name": "marketplaceAddress",
          "type": "address"
        }
      ],
      "stateMutability": "nonpayable",
      "type": "constructor"
    },
    {
      "anonymous": false,
      "inputs": [
        {
          "indexed": true,
          "internalType": "address",
          "name": "owner",
          "type": "address"
        },
        {
          "indexed": true,
          "internalType": "address",
          "name": "approved",
          "type": "address"
        },
        {
          "indexed": true,
          "internalType": "uint256",
          "name": "tokenId",
          "type": "uint256"
        }
      ],
      "name": "Approval",
      "type": "event"
    },
    {
      "anonymous": false,
      "inputs": [
        {
          "indexed": true,
          "internalType": "address",
          "name": "owner",
          "type": "address"
        },
        {
          "indexed": true,
          "internalType": "address",
          "name": "operator",
          "type": "address"
        },
        {
          "indexed": false,
          "internalType": "bool",
          "name": "approved",
          "type": "bool"
        }
      ],
      "name": "ApprovalForAll",
      "type": "event"
    },
    {
      "anonymous": false,
      "inputs": [
        {
          "indexed": true,
          "internalType": "address",
          "name": "from",
          "type": "address"
        },
        {
          "indexed": true,
          "internalType": "address",
          "name": "to",
          "type": "address"
        },
        {
          "indexed": true,
          "internalType": "uint256",
          "name": "tokenId",
          "type": "uint256"
        }
      ],
      "name": "Transfer",
      "type": "event"
    },
    {
      "inputs": [
        {
          "internalType": "address",
          "name": "to",
          "type": "address"
        },
        {
          "internalType": "uint256",
          "name": "tokenId",
          "type": "uint256"
        }
      ],
      "name": "approve",
      "outputs": [],
      "stateMutability": "nonpayable",
      "type": "function"
    },
    {
      "inputs": [
        {
          "internalType": "address",
          "name": "owner",
          "type": "address"
        }
      ],
      "name": "balanceOf",
      "outputs": [
        {
          "internalType": "uint256",
          "name": "",
          "type": "uint256"
        }
      ],
      "stateMutability": "view",
      "type": "function"
    },
    {
      "inputs": [
        {
          "internalType": "string",
          "name": "tokenURI",
          "type": "string"
        }
      ],
      "name": "createToken",
      "outputs": [
        {
          "internalType": "uint256",
          "name": "",
          "type": "uint256"
        }
      ],
      "stateMutability": "nonpayable",
      "type": "function"
    },
    {
      "inputs": [
        {
          "internalType": "uint256",
          "name": "tokenId",
          "type": "uint256"
        }
      ],
      "name": "getApproved",
      "outputs": [
        {
          "internalType": "address",
          "name": "",
          "type": "address"
        }
      ],
      "stateMutability": "view",
      "type": "function"
    },
    {
      "inputs": [
        {
          "internalType": "address",
          "name": "owner",
          "type": "address"
        },
        {
          "internalType": "address",
          "name": "operator",
          "type": "address"
        }
      ],
      "name": "isApprovedForAll",
      "outputs": [
        {
          "internalType": "bool",
          "name": "",
          "type": "bool"
        }
      ],
      "stateMutability": "view",
      "type": "function"
    },
    {
      "inputs": [],
      "name": "name",
      "outputs": [
        {
          "internalType": "string",
          "name": "",
          "type": "string"
        }
      ],
      "stateMutability": "view",
      "type": "function"
    },
    {
      "inputs": [
        {
          "internalType": "uint256",
          "name": "tokenId",
          "type": "uint256"
        }
      ],
      "name": "ownerOf",
      "outputs": [
        {
          "internalType": "address",
          "name": "",
          "type": "address"
        }
      ],
      "stateMutability": "view",
      "type": "function"
    },
    {
      "inputs": [
        {
          "internalType": "uint256",
          "name": "itemId",
          "type": "uint256"
        }
      ],
      "name": "resellToken",
      "outputs": [
        {
          "internalType": "uint256",
          "name": "",
          "type": "uint256"
        }
      ],
      "stateMutability": "nonpayable",
      "type": "function"
    },
    {
      "inputs": [
        {
          "internalType": "address",
          "name": "from",
          "type": "address"
        },
        {
          "internalType": "address",
          "name": "to",
          "type": "address"
        },
        {
          "internalType": "uint256",
          "name": "tokenId",
          "type": "uint256"
        }
      ],
      "name": "safeTransferFrom",
      "outputs": [],
      "stateMutability": "nonpayable",
      "type": "function"
    },
    {
      "inputs": [
        {
          "internalType": "address",
          "name": "from",
          "type": "address"
        },
        {
          "internalType": "address",
          "name": "to",
          "type": "address"
        },
        {
          "internalType": "uint256",
          "name": "tokenId",
          "type": "uint256"
        },
        {
          "internalType": "bytes",
          "name": "_data",
          "type": "bytes"
        }
      ],
      "name": "safeTransferFrom",
      "outputs": [],
      "stateMutability": "nonpayable",
      "type": "function"
    },
    {
      "inputs": [
        {
          "internalType": "address",
          "name": "operator",
          "type": "address"
        },
        {
          "internalType": "bool",
          "name": "approved",
          "type": "bool"
        }
      ],
      "name": "setApprovalForAll",
      "outputs": [],
      "stateMutability": "nonpayable",
      "type": "function"
    },
    {
      "inputs": [
        {
          "internalType": "bytes4",
          "name": "interfaceId",
          "type": "bytes4"
        }
      ],
      "name": "supportsInterface",
      "outputs": [
        {
          "internalType": "bool",
          "name": "",
          "type": "bool"
        }
      ],
      "stateMutability": "view",
      "type": "function"
    },
    {
      "inputs": [],
      "name": "symbol",
      "outputs": [
        {
          "internalType": "string",
          "name": "",
          "type": "string"
        }
      ],
      "stateMutability": "view",
      "type": "function"
    },
    {
      "inputs": [
        {
          "internalType": "uint256",
          "name": "tokenId",
          "type": "uint256"
        }
      ],
      "name": "tokenURI",
      "outputs": [
        {
          "internalType": "string",
          "name": "",
          "type": "string"
        }
      ],
      "stateMutability": "view",
      "type": "function"
    },
    {
      "inputs": [
        {
          "internalType": "address",
          "name": "from",
          "type": "address"
        },
        {
          "internalType": "address",
          "name": "to",
          "type": "address"
        },
        {
          "internalType": "uint256",
          "name": "tokenId",
          "type": "uint256"
        }
      ],
      "name": "transferFrom",
      "outputs": [],
      "stateMutability": "nonpayable",
      "type": "function"
    }
  ],
  "bytecode": "0x60806040523480156200001157600080fd5b50604051620019033803806200190383398101604081905262000034916200016c565b604080518082018252601081526f4f7572616e6f732045786368616e676560801b6020808301918252835180850190945260028452614f4560f01b9084015281519192916200008691600091620000c6565b5080516200009c906001906020840190620000c6565b5050600880546001600160a01b0319166001600160a01b03939093169290921790915550620001d9565b828054620000d4906200019c565b90600052602060002090601f016020900481019282620000f8576000855562000143565b82601f106200011357805160ff191683800117855562000143565b8280016001018555821562000143579182015b828111156200014357825182559160200191906001019062000126565b506200015192915062000155565b5090565b5b8082111562000151576000815560010162000156565b6000602082840312156200017e578081fd5b81516001600160a01b038116811462000195578182fd5b9392505050565b600181811c90821680620001b157607f821691505b60208210811415620001d357634e487b7160e01b600052602260045260246000fd5b50919050565b61171a80620001e96000396000f3fe608060405234801561001057600080fd5b50600436106100f55760003560e01c80636352211e11610097578063b88d4fde11610066578063b88d4fde146101ff578063c87b56dd14610212578063e985e9c514610225578063f958f84414610261576100f5565b80636352211e146101be57806370a08231146101d157806395d89b41146101e4578063a22cb465146101ec576100f5565b8063095ea7b3116100d3578063095ea7b31461016257806323b872dd1461017757806342842e0e1461018a57806345576f941461019d576100f5565b806301ffc9a7146100fa57806306fdde0314610122578063081812fc14610137575b600080fd5b61010d6101083660046113cc565b610274565b60405190151581526020015b60405180910390f35b61012a6102c8565b60405161011991906114fa565b61014a61014536600461144a565b61035a565b6040516001600160a01b039091168152602001610119565b6101756101703660046113a3565b6103e7565b005b6101756101853660046112b5565b6104fd565b6101756101983660046112b5565b61052e565b6101b06101ab366004611404565b610549565b604051908152602001610119565b61014a6101cc36600461144a565b610591565b6101b06101df366004611269565b610608565b61012a61068f565b6101756101fa366004611369565b61069e565b61017561020d3660046112f0565b6106ad565b61012a61022036600461144a565b6106e5565b61010d610233366004611283565b6001600160a01b03918216600090815260056020908152604080832093909416825291909152205460ff1690565b6101b061026f36600461144a565b61085d565b60006001600160e01b031982166380ac58cd60e01b14806102a557506001600160e01b03198216635b5e139f60e01b145b806102c057506301ffc9a760e01b6001600160e01b03198316145b90505b919050565b6060600080546102d79061161f565b80601f01602080910402602001604051908101604052809291908181526020018280546103039061161f565b80156103505780601f1061032557610100808354040283529160200191610350565b820191906000526020600020905b81548152906001019060200180831161033357829003601f168201915b5050505050905090565b60006103658261087b565b6103cb5760405162461bcd60e51b815260206004820152602c60248201527f4552433732313a20617070726f76656420717565727920666f72206e6f6e657860448201526b34b9ba32b73a103a37b5b2b760a11b60648201526084015b60405180910390fd5b506000908152600460205260409020546001600160a01b031690565b60006103f282610591565b9050806001600160a01b0316836001600160a01b031614156104605760405162461bcd60e51b815260206004820152602160248201527f4552433732313a20617070726f76616c20746f2063757272656e74206f776e656044820152603960f91b60648201526084016103c2565b336001600160a01b038216148061047c575061047c8133610233565b6104ee5760405162461bcd60e51b815260206004820152603860248201527f4552433732313a20617070726f76652063616c6c6572206973206e6f74206f7760448201527f6e6572206e6f7220617070726f76656420666f7220616c6c000000000000000060648201526084016103c2565b6104f88383610898565b505050565b6105073382610906565b6105235760405162461bcd60e51b81526004016103c29061155f565b6104f88383836109ef565b6104f8838383604051806020016040528060008152506106ad565b6000610559600780546001019055565b600061056460075490565b90506105703382610b8b565b61057a8184610cbf565b6008546102c0906001600160a01b0316600161069e565b6000818152600260205260408120546001600160a01b0316806102c05760405162461bcd60e51b815260206004820152602960248201527f4552433732313a206f776e657220717565727920666f72206e6f6e657869737460448201526832b73a103a37b5b2b760b91b60648201526084016103c2565b60006001600160a01b0382166106735760405162461bcd60e51b815260206004820152602a60248201527f4552433732313a2062616c616e636520717565727920666f7220746865207a65604482015269726f206164647265737360b01b60648201526084016103c2565b506001600160a01b031660009081526003602052604090205490565b6060600180546102d79061161f565b6106a9338383610d4a565b5050565b6106b73383610906565b6106d35760405162461bcd60e51b81526004016103c29061155f565b6106df84848484610e19565b50505050565b60606106f08261087b565b6107565760405162461bcd60e51b815260206004820152603160248201527f45524337323155524953746f726167653a2055524920717565727920666f72206044820152703737b732bc34b9ba32b73a103a37b5b2b760791b60648201526084016103c2565b6000828152600660205260408120805461076f9061161f565b80601f016020809104026020016040519081016040528092919081815260200182805461079b9061161f565b80156107e85780601f106107bd576101008083540402835291602001916107e8565b820191906000526020600020905b8154815290600101906020018083116107cb57829003601f168201915b50505050509050600061080660408051602081019091526000815290565b905080516000141561081a575090506102c3565b81511561084c57808260405160200161083492919061148e565b604051602081830303815290604052925050506102c3565b61085584610e4c565b949350505050565b600854600090610877906001600160a01b0316600161069e565b5090565b6000908152600260205260409020546001600160a01b0316151590565b600081815260046020526040902080546001600160a01b0319166001600160a01b03841690811790915581906108cd82610591565b6001600160a01b03167f8c5be1e5ebec7d5bd14f71427d1e84f3dd0314c0f7b2291e5b200ac8c7c3b92560405160405180910390a45050565b60006109118261087b565b6109725760405162461bcd60e51b815260206004820152602c60248201527f4552433732313a206f70657261746f7220717565727920666f72206e6f6e657860448201526b34b9ba32b73a103a37b5b2b760a11b60648201526084016103c2565b600061097d83610591565b9050806001600160a01b0316846001600160a01b031614806109c457506001600160a01b0380821660009081526005602090815260408083209388168352929052205460ff165b806108555750836001600160a01b03166109dd8461035a565b6001600160a01b031614949350505050565b826001600160a01b0316610a0282610591565b6001600160a01b031614610a665760405162461bcd60e51b815260206004820152602560248201527f4552433732313a207472616e736665722066726f6d20696e636f72726563742060448201526437bbb732b960d91b60648201526084016103c2565b6001600160a01b038216610ac85760405162461bcd60e51b8152602060048201526024808201527f4552433732313a207472616e7366657220746f20746865207a65726f206164646044820152637265737360e01b60648201526084016103c2565b610ad3600082610898565b6001600160a01b0383166000908152600360205260408120805460019290610afc9084906115dc565b90915550506001600160a01b0382166000908152600360205260408120805460019290610b2a9084906115b0565b909155505060008181526002602052604080822080546001600160a01b0319166001600160a01b0386811691821790925591518493918716917fddf252ad1be2c89b69c2b068fc378daa952ba7f163c4a11628f55a4df523b3ef91a46104f8565b6001600160a01b038216610be15760405162461bcd60e51b815260206004820181905260248201527f4552433732313a206d696e7420746f20746865207a65726f206164647265737360448201526064016103c2565b610bea8161087b565b15610c375760405162461bcd60e51b815260206004820152601c60248201527f4552433732313a20746f6b656e20616c7265616479206d696e7465640000000060448201526064016103c2565b6001600160a01b0382166000908152600360205260408120805460019290610c609084906115b0565b909155505060008181526002602052604080822080546001600160a01b0319166001600160a01b03861690811790915590518392907fddf252ad1be2c89b69c2b068fc378daa952ba7f163c4a11628f55a4df523b3ef908290a46106a9565b610cc88261087b565b610d2b5760405162461bcd60e51b815260206004820152602e60248201527f45524337323155524953746f726167653a2055524920736574206f66206e6f6e60448201526d32bc34b9ba32b73a103a37b5b2b760911b60648201526084016103c2565b600082815260066020908152604090912082516104f89284019061114c565b816001600160a01b0316836001600160a01b03161415610dac5760405162461bcd60e51b815260206004820152601960248201527f4552433732313a20617070726f766520746f2063616c6c65720000000000000060448201526064016103c2565b6001600160a01b03838116600081815260056020908152604080832094871680845294825291829020805460ff191686151590811790915591519182527f17307eab39ab6107e8899845ad3d59bd9653f200f220920489ca2b5937696c31910160405180910390a3505050565b610e248484846109ef565b610e3084848484610f24565b6106df5760405162461bcd60e51b81526004016103c29061150d565b6060610e578261087b565b610ebb5760405162461bcd60e51b815260206004820152602f60248201527f4552433732314d657461646174613a2055524920717565727920666f72206e6f60448201526e3732bc34b9ba32b73a103a37b5b2b760891b60648201526084016103c2565b6000610ed260408051602081019091526000815290565b90506000815111610ef25760405180602001604052806000815250610f1d565b80610efc84611031565b604051602001610f0d92919061148e565b6040516020818303038152906040525b9392505050565b60006001600160a01b0384163b1561102657604051630a85bd0160e11b81526001600160a01b0385169063150b7a0290610f689033908990889088906004016114bd565b602060405180830381600087803b158015610f8257600080fd5b505af1925050508015610fb2575060408051601f3d908101601f19168201909252610faf918101906113e8565b60015b61100c573d808015610fe0576040519150601f19603f3d011682016040523d82523d6000602084013e610fe5565b606091505b5080516110045760405162461bcd60e51b81526004016103c29061150d565b805181602001fd5b6001600160e01b031916630a85bd0160e11b149050610855565b506001949350505050565b60608161105657506040805180820190915260018152600360fc1b60208201526102c3565b8160005b8115611080578061106a8161165a565b91506110799050600a836115c8565b915061105a565b60008167ffffffffffffffff8111156110a957634e487b7160e01b600052604160045260246000fd5b6040519080825280601f01601f1916602001820160405280156110d3576020820181803683370190505b5090505b8415610855576110e86001836115dc565b91506110f5600a86611675565b6111009060306115b0565b60f81b81838151811061112357634e487b7160e01b600052603260045260246000fd5b60200101906001600160f81b031916908160001a905350611145600a866115c8565b94506110d7565b8280546111589061161f565b90600052602060002090601f01602090048101928261117a57600085556111c0565b82601f1061119357805160ff19168380011785556111c0565b828001600101855582156111c0579182015b828111156111c05782518255916020019190600101906111a5565b506108779291505b8082111561087757600081556001016111c8565b600067ffffffffffffffff808411156111f7576111f76116b5565b604051601f8501601f19908116603f0116810190828211818310171561121f5761121f6116b5565b8160405280935085815286868601111561123857600080fd5b858560208301376000602087830101525050509392505050565b80356001600160a01b03811681146102c357600080fd5b60006020828403121561127a578081fd5b610f1d82611252565b60008060408385031215611295578081fd5b61129e83611252565b91506112ac60208401611252565b90509250929050565b6000806000606084860312156112c9578081fd5b6112d284611252565b92506112e060208501611252565b9150604084013590509250925092565b60008060008060808587031215611305578081fd5b61130e85611252565b935061131c60208601611252565b925060408501359150606085013567ffffffffffffffff81111561133e578182fd5b8501601f8101871361134e578182fd5b61135d878235602084016111dc565b91505092959194509250565b6000806040838503121561137b578182fd5b61138483611252565b915060208301358015158114611398578182fd5b809150509250929050565b600080604083850312156113b5578182fd5b6113be83611252565b946020939093013593505050565b6000602082840312156113dd578081fd5b8135610f1d816116cb565b6000602082840312156113f9578081fd5b8151610f1d816116cb565b600060208284031215611415578081fd5b813567ffffffffffffffff81111561142b578182fd5b8201601f8101841361143b578182fd5b610855848235602084016111dc565b60006020828403121561145b578081fd5b5035919050565b6000815180845261147a8160208601602086016115f3565b601f01601f19169290920160200192915050565b600083516114a08184602088016115f3565b8351908301906114b48183602088016115f3565b01949350505050565b6001600160a01b03858116825284166020820152604081018390526080606082018190526000906114f090830184611462565b9695505050505050565b600060208252610f1d6020830184611462565b60208082526032908201527f4552433732313a207472616e7366657220746f206e6f6e20455243373231526560408201527131b2b4bb32b91034b6b83632b6b2b73a32b960711b606082015260800190565b60208082526031908201527f4552433732313a207472616e736665722063616c6c6572206973206e6f74206f6040820152701ddb995c881b9bdc88185c1c1c9bdd9959607a1b606082015260800190565b600082198211156115c3576115c3611689565b500190565b6000826115d7576115d761169f565b500490565b6000828210156115ee576115ee611689565b500390565b60005b8381101561160e5781810151838201526020016115f6565b838111156106df5750506000910152565b600181811c9082168061163357607f821691505b6020821081141561165457634e487b7160e01b600052602260045260246000fd5b50919050565b600060001982141561166e5761166e611689565b5060010190565b6000826116845761168461169f565b500690565b634e487b7160e01b600052601160045260246000fd5b634e487b7160e01b600052601260045260246000fd5b634e487b7160e01b600052604160045260246000fd5b6001600160e01b0319811681146116e157600080fd5b5056fea2646970667358221220b3d80cbf57add82a1fa1a33c7e38ec5b92459857b4d1b951099877bca18e5c1564736f6c63430008030033",
  "linkReferences": {},
  "deployedLinkReferences": {}
}